{
  "contractName": "Shopping",
  "abi": [
    {
      "inputs": [],
      "stateMutability": "nonpayable",
      "type": "constructor"
    },
    {
      "inputs": [],
      "name": "itemID",
      "outputs": [
        {
          "internalType": "string",
          "name": "",
          "type": "string"
        }
      ],
      "stateMutability": "view",
      "type": "function",
      "constant": true
    },
    {
      "inputs": [],
      "name": "itemPrice",
      "outputs": [
        {
          "internalType": "uint256",
          "name": "",
          "type": "uint256"
        }
      ],
      "stateMutability": "view",
      "type": "function",
      "constant": true
    },
    {
      "inputs": [],
      "name": "itemQuantity",
      "outputs": [
        {
          "internalType": "uint256",
          "name": "",
          "type": "uint256"
        }
      ],
      "stateMutability": "view",
      "type": "function",
      "constant": true
    },
    {
      "inputs": [],
      "name": "owner",
      "outputs": [
        {
          "internalType": "address",
          "name": "",
          "type": "address"
        }
      ],
      "stateMutability": "view",
      "type": "function",
      "constant": true
    },
    {
      "inputs": [
        {
          "internalType": "string",
          "name": "_itmID",
          "type": "string"
        },
        {
          "internalType": "uint256",
          "name": "_itmPrice",
          "type": "uint256"
        },
        {
          "internalType": "uint256",
          "name": "_itmQnty",
          "type": "uint256"
        }
      ],
      "name": "selectingItems",
      "outputs": [],
      "stateMutability": "nonpayable",
      "type": "function"
    },
    {
      "inputs": [
        {
          "internalType": "uint256",
          "name": "_itmQnty",
          "type": "uint256"
        }
      ],
      "name": "buyingItems",
      "outputs": [],
      "stateMutability": "payable",
      "type": "function",
      "payable": true
    },
    {
      "inputs": [],
      "name": "withdrawingCurrency",
      "outputs": [],
      "stateMutability": "nonpayable",
      "type": "function"
    }
  ],
  "bytecode": "0x608060405234801561001057600080fd5b50336000806101000a81548173ffffffffffffffffffffffffffffffffffffffff021916908373ffffffffffffffffffffffffffffffffffffffff16021790555061100d806100606000396000f3fe6080604052600436106100705760003560e01c80639ffcbc761161004e5780639ffcbc76146100e2578063bec963cb1461010d578063cfa48da914610129578063dac6db1c1461015257610070565b806343cdef601461007557806348710280146100a05780638da5cb5b146100b7575b600080fd5b34801561008157600080fd5b5061008a61017d565b6040516100979190610648565b60405180910390f35b3480156100ac57600080fd5b506100b561020b565b005b3480156100c357600080fd5b506100cc61035c565b6040516100d991906106ab565b60405180910390f35b3480156100ee57600080fd5b506100f7610380565b60405161010491906106df565b60405180910390f35b6101276004803603810190610122919061073a565b610386565b005b34801561013557600080fd5b50610150600480360381019061014b919061089c565b610437565b005b34801561015e57600080fd5b506101676105b2565b60405161017491906106df565b60405180910390f35b6001805461018a9061093a565b80601f01602080910402602001604051908101604052809291908181526020018280546101b69061093a565b80156102035780601f106101d857610100808354040283529160200191610203565b820191906000526020600020905b8154815290600101906020018083116101e657829003601f168201915b505050505081565b60008054906101000a900473ffffffffffffffffffffffffffffffffffffffff1673ffffffffffffffffffffffffffffffffffffffff163373ffffffffffffffffffffffffffffffffffffffff1614610299576040517f08c379a0000000000000000000000000000000000000000000000000000000008152600401610290906109dd565b60405180910390fd5b600080479050600081116102e2576040517f08c379a00000000000000000000000000000000000000000000000000000000081526004016102d990610a49565b60405180910390fd5b60008054906101000a900473ffffffffffffffffffffffffffffffffffffffff1673ffffffffffffffffffffffffffffffffffffffff166108fc829081150290604051600060405180830381858888f1935050505015610345576001915061034a565b600091505b8161035857610357610a69565b5b5050565b60008054906101000a900473ffffffffffffffffffffffffffffffffffffffff1681565b60035481565b6003548111156103cb576040517f08c379a00000000000000000000000000000000000000000000000000000000081526004016103c290610ae4565b60405180910390fd5b806002546103d99190610b33565b34101561041b576040517f08c379a000000000000000000000000000000000000000000000000000000000815260040161041290610bc1565b60405180910390fd5b806003600082825461042d9190610be1565b9250508190555050565b60008054906101000a900473ffffffffffffffffffffffffffffffffffffffff1673ffffffffffffffffffffffffffffffffffffffff163373ffffffffffffffffffffffffffffffffffffffff16146104c5576040517f08c379a00000000000000000000000000000000000000000000000000000000081526004016104bc906109dd565b60405180910390fd5b6000835111610509576040517f08c379a000000000000000000000000000000000000000000000000000000000815260040161050090610c61565b60405180910390fd5b6000811161054c576040517f08c379a000000000000000000000000000000000000000000000000000000000815260040161054390610ccd565b60405180910390fd5b6000820361058f576040517f08c379a000000000000000000000000000000000000000000000000000000000815260040161058690610d39565b60405180910390fd5b826001908161059e9190610f05565b508160028190555080600381905550505050565b60025481565b600081519050919050565b600082825260208201905092915050565b60005b838110156105f25780820151818401526020810190506105d7565b60008484015250505050565b6000601f19601f8301169050919050565b600061061a826105b8565b61062481856105c3565b93506106348185602086016105d4565b61063d816105fe565b840191505092915050565b60006020820190508181036000830152610662818461060f565b905092915050565b600073ffffffffffffffffffffffffffffffffffffffff82169050919050565b60006106958261066a565b9050919050565b6106a58161068a565b82525050565b60006020820190506106c0600083018461069c565b92915050565b6000819050919050565b6106d9816106c6565b82525050565b60006020820190506106f460008301846106d0565b92915050565b6000604051905090565b600080fd5b600080fd5b610717816106c6565b811461072257600080fd5b50565b6000813590506107348161070e565b92915050565b6000602082840312156107505761074f610704565b5b600061075e84828501610725565b91505092915050565b600080fd5b600080fd5b7f4e487b7100000000000000000000000000000000000000000000000000000000600052604160045260246000fd5b6107a9826105fe565b810181811067ffffffffffffffff821117156107c8576107c7610771565b5b80604052505050565b60006107db6106fa565b90506107e782826107a0565b919050565b600067ffffffffffffffff82111561080757610806610771565b5b610810826105fe565b9050602081019050919050565b82818337600083830152505050565b600061083f61083a846107ec565b6107d1565b90508281526020810184848401111561085b5761085a61076c565b5b61086684828561081d565b509392505050565b600082601f83011261088357610882610767565b5b813561089384826020860161082c565b91505092915050565b6000806000606084860312156108b5576108b4610704565b5b600084013567ffffffffffffffff8111156108d3576108d2610709565b5b6108df8682870161086e565b93505060206108f086828701610725565b925050604061090186828701610725565b9150509250925092565b7f4e487b7100000000000000000000000000000000000000000000000000000000600052602260045260246000fd5b6000600282049050600182168061095257607f821691505b6020821081036109655761096461090b565b5b50919050565b7f4f6e6c79206f776e65722063616e2061636365737320746869732066756e637460008201527f696f6e0000000000000000000000000000000000000000000000000000000000602082015250565b60006109c76023836105c3565b91506109d28261096b565b604082019050919050565b600060208201905081810360008301526109f6816109ba565b9050919050565b7f496e73756666696369656e742062616c616e6365000000000000000000000000600082015250565b6000610a336014836105c3565b9150610a3e826109fd565b602082019050919050565b60006020820190508181036000830152610a6281610a26565b9050919050565b7f4e487b7100000000000000000000000000000000000000000000000000000000600052600160045260246000fd5b7f496e73756666696369656e74207175616e746974790000000000000000000000600082015250565b6000610ace6015836105c3565b9150610ad982610a98565b602082019050919050565b60006020820190508181036000830152610afd81610ac1565b9050919050565b7f4e487b7100000000000000000000000000000000000000000000000000000000600052601160045260246000fd5b6000610b3e826106c6565b9150610b49836106c6565b9250828202610b57816106c6565b91508282048414831517610b6e57610b6d610b04565b5b5092915050565b7f496e73756666696369656e742066756e64730000000000000000000000000000600082015250565b6000610bab6012836105c3565b9150610bb682610b75565b602082019050919050565b60006020820190508181036000830152610bda81610b9e565b9050919050565b6000610bec826106c6565b9150610bf7836106c6565b9250828203905081811115610c0f57610c0e610b04565b5b92915050565b7f4974656d2049442063616e6e6f7420626520656d707479000000000000000000600082015250565b6000610c4b6017836105c3565b9150610c5682610c15565b602082019050919050565b60006020820190508181036000830152610c7a81610c3e565b9050919050565b7f4974656d207175616e746974792063616e6e6f74206265207a65726f00000000600082015250565b6000610cb7601c836105c3565b9150610cc282610c81565b602082019050919050565b60006020820190508181036000830152610ce681610caa565b9050919050565b7f4974656d2070726963652063616e6e6f74206265207a65726f00000000000000600082015250565b6000610d236019836105c3565b9150610d2e82610ced565b602082019050919050565b60006020820190508181036000830152610d5281610d16565b9050919050565b60008190508160005260206000209050919050565b60006020601f8301049050919050565b600082821b905092915050565b600060088302610dbb7fffffffffffffffffffffffffffffffffffffffffffffffffffffffffffffffff82610d7e565b610dc58683610d7e565b95508019841693508086168417925050509392505050565b6000819050919050565b6000610e02610dfd610df8846106c6565b610ddd565b6106c6565b9050919050565b6000819050919050565b610e1c83610de7565b610e30610e2882610e09565b848454610d8b565b825550505050565b600090565b610e45610e38565b610e50818484610e13565b505050565b5b81811015610e7457610e69600082610e3d565b600181019050610e56565b5050565b601f821115610eb957610e8a81610d59565b610e9384610d6e565b81016020851015610ea2578190505b610eb6610eae85610d6e565b830182610e55565b50505b505050565b600082821c905092915050565b6000610edc60001984600802610ebe565b1980831691505092915050565b6000610ef58383610ecb565b9150826002028217905092915050565b610f0e826105b8565b67ffffffffffffffff811115610f2757610f26610771565b5b610f31825461093a565b610f3c828285610e78565b600060209050601f831160018114610f6f5760008415610f5d578287015190505b610f678582610ee9565b865550610fcf565b601f198416610f7d86610d59565b60005b82811015610fa557848901518255600182019150602085019450602081019050610f80565b86831015610fc25784890151610fbe601f891682610ecb565b8355505b6001600288020188555050505b50505050505056fea2646970667358221220ec614e6913018a808e0b5fba5b8d88906b60bfe9661014589ce0c93a2a10707164736f6c63430008110033",
  "immutableReferences": {},
  "source": "// SPDX-License-Identifier: MIT\r\npragma solidity ^0.8.17;\r\n\r\ncontract Shopping {\r\n    address public owner;\r\n    string public itemID;\r\n    uint public itemPrice;\r\n    uint public itemQuantity;\r\n\r\n    modifier onlyOwner() {\r\n        require(msg.sender == owner, \"Only owner can access this function\");\r\n        _;\r\n    }\r\n\r\n    constructor() {\r\n        owner = msg.sender;\r\n    }\r\n\r\n    function selectingItems(\r\n        string memory _itmID,\r\n        uint _itmPrice,\r\n        uint _itmQnty\r\n    ) public onlyOwner {\r\n        require(bytes(_itmID).length > 0, \"Item ID cannot be empty\");\r\n        require(_itmQnty > 0, \"Item quantity cannot be zero\");\r\n        if (_itmPrice == 0) {\r\n            revert(\"Item price cannot be zero\");\r\n        }\r\n\r\n        itemID = _itmID;\r\n        itemPrice = _itmPrice;\r\n        itemQuantity = _itmQnty;\r\n    }\r\n\r\n    function buyingItems(uint _itmQnty) public payable {\r\n        if (_itmQnty > itemQuantity) {\r\n            revert(\"Insufficient quantity\");\r\n        }\r\n        require(msg.value >= itemPrice * _itmQnty, \"Insufficient funds\");\r\n\r\n        itemQuantity -= _itmQnty;\r\n    }\r\n\r\n    function withdrawingCurrency() public onlyOwner {\r\n        bool CurrencyReceived;\r\n        uint balance = address(this).balance;\r\n        require(balance > 0, \"Insufficient balance\");\r\n\r\n        if (payable(owner).send(balance)) {\r\n            CurrencyReceived = true;\r\n        } else {\r\n            CurrencyReceived = false;\r\n        }\r\n        assert(CurrencyReceived);\r\n    }\r\n}\r\n",
  "sourcePath": "C:\\Users\\abhis\\OneDrive\\Documents\\truffle-test\\contracts\\Shopping.sol",
  "compiler": {
    "name": "solc",
    "version": "0.8.17+commit.8df45f5f.Emscripten.clang"
  },
  "schemaVersion": "3.4.16",
  "updatedAt": "2024-06-30T14:39:52.397Z",
  "networkType": "ethereum",
  "devdoc": {
    "kind": "dev",
    "methods": {},
    "version": 1
  },
  "userdoc": {
    "kind": "user",
    "methods": {},
    "version": 1
  }
}